:1000000012C02CC02BC02AC029C028C027C026C0BF
:100010005FC0C5C023C022C021C020C01FC01EC0F9
:100020001DC01CC01BC011241FBECFE5D4E0DEBF25
:10003000CDBF10E0A0E6B0E0E8E8FBE002C005902C
:100040000D92AE39B107D9F720E0AEE9B0E001C0BA
:100050001D92AC3AB207E1F77DD294C5D1CF13BE61
:1000600089B7816089BF12BE08951FBC1EBC89B7C5
:10007000846089BF1DBC1CBC08951092A70010921B
:10008000A6001092A2001092A3001092A400109259
:10009000A50012BE80EB9CE39DBD8CBD8EB5836038
:1000A0008EBD83B7866083BF8091A0009091A10030
:1000B000892BD1F31092A1001092A0006091A200B0
:1000C0007091A3008091A4009091A5003ED4089562
:1000D0001F920F920FB60F921124CF92DF92EF92E0
:1000E000FF922F933F934F935F936F937F938F93E1
:1000F0009F93AF93BF93CF93EF93FF9383B7887F83
:1001000083BF8FB5887F8FBDC2B76091A600709105
:10011000A700CB01A0E0B0E06627782F892F9A2FA7
:1001200040D420E030E040EA50E4C9D46B017C01C7
:100130006C2F70E080E090E036D49B01AC01C701E9
:10014000B60132D36093A2007093A3008093A40001
:100150009093A5008091AA009091AB000196909396
:10016000AB008093AA0081E090E09093A10080937F
:10017000A000FF91EF91CF91BF91AF919F918F918F
:100180007F916F915F914F913F912F91FF90EF90F1
:10019000DF90CF900F900FBE0F901F9018951F9279
:1001A0000F920FB60F9211248F939F938091A60008
:1001B0009091A70001969093A7008093A6009F912D
:1001C0008F910F900FBE0F901F9018950895CF92AA
:1001D000DF92EF92FF920F931F93CF93DF938A01E9
:1001E0006B017C01F7FC36C0C701B6012150310913
:1001F000D801A20FB31F1C921216130604F5ED01CD
:10020000F80120E22193AE17BF07E1F7CD28CE28F1
:10021000CF28A9F02AE0C22ED12CE12CF12C03C06A
:100220000C171D0761F0A70196017FD2605D6A93EC
:10023000B901CA01611571058105910589F780E051
:1002400090E0DF91CF911F910F91FF90EF90DF90A1
:10025000CF900895F094E094D094C094C11CD11C28
:10026000E11CF11CC1CF2BED3FE049EC50E427D459
:100270009B01AC0160E070E080E89FE3F9D29B0154
:10028000AC011DD429E33BE94EE858E3F1D20895CF
:100290002BED3FE049EC50E412D49B01AC0160E04F
:1002A00070E080E89FE3E4D29B01AC0108D42FEB1F
:1002B0003AEE4AE350E3DCD20895AF92BF92CF9278
:1002C000DF92EF92FF920F931F93CF93DF938C01F6
:1002D000EB015A012BED3FE049EC50E460E070E0A7
:1002E000CB01EDD39B01AC01EAD39B01AC0160E0F3
:1002F00070E080E89FE3BCD26B017C0160E070E0BD
:10030000CB019B01AC01DBD39B01AC0160E070E051
:1003100080E89FE3ADD2A701960145D2F501208187
:10032000318142815381A4D29B01AC01F8016083E9
:10033000718382839383C701B6019AD268837983DC
:100340008A839B8381E090E0DF91CF911F910F9191
:10035000FF90EF90DF90CF90BF90AF90089581B362
:100360008F7181BB82B3806E82BB089580B382950A
:100370008695877090E0089598B3907F8F70982B42
:1003800098BB8AE18A95F1F700C0C59A8AE18A95FF
:10039000F1F700C0C5988AE18A95F1F700C0089589
:1003A000CF93C82FC49882958F70E6DF8C2F8F7003
:1003B000E3DF8AE68A95F1F700C0CF910895809334
:1003C000610060936000BC9AA09ABD9A87B38F6069
:1003D00087BBC498A898C5988FE59AEE0197F1F766
:1003E00000C0000083E0C8DF9AE69A95F1F700C0EC
:1003F00083E0C2DF8AE68A95F1F700C082E0BCDFC5
:100400009AE69A95F1F700C088E2CADF85ED8A95F1
:10041000F1F7000086E0C4DF95ED9A95F1F7000052
:100420008CE0BEDF85ED8A95F1F7000081E0B8DF52
:100430008FE39FE10197F1F700C0000082E0B0DF99
:100440008FE39FE10197F1F700C000000895CF937B
:10045000C82FC49A82958F708FDF8C2F8F708CDF9E
:100460008AE68A95F1F700C0CF91089581E098DF80
:100470008FE39FE10197F1F700C00000089582E04B
:100480008FDF8FE39FE10197F1F700C0000008952F
:10049000846086DF85ED8A95F1F700000895886015
:1004A0007FDF85ED8A95F1F700000895806178DFA0
:1004B00085ED8A95F1F700000895806271DF85ED82
:1004C0008A95F1F7000008958F73805C69DF85EDF0
:1004D0008A95F1F700000895806862DF85ED8A95BE
:1004E000F1F7000008952091610030E08217930732
:1004F00034F44091600050E06417750714F080E018
:100500000895269F800D112480684ADF85ED8A9525
:10051000F1F7000081E0089580E0089580E00895FB
:100520000F931F93CF93DF93EC018881882379F099
:10053000219600E010E00F5F1F4F89DF8991811144
:10054000FACFC801DF91CF911F910F91089500E07C
:1005500010E0F7CFCF93DF93CDB7DEB72A970FB672
:10056000F894DEBF0FBECDBF889A81B38F7381BB75
:1005700082B3806C82BB81B38F7181BB82B3806E8A
:1005800082BB13BE89B7816089BF12BE1FBC1EBC6F
:1005900089B7846089BF1DBC1CBC62E080E10FDFAD
:1005A00065DF61E070E08AE090E09DDF82E690E048
:1005B000B7DF2FEF83ED90E3215080409040E1F7CB
:1005C00000C0000090987894FE0131966F0180E29F
:1005D000F82E9AE0892E912CA12CB12C8091AA00A2
:1005E0009091AB004ADD2B013C018091AA009091D3
:1005F000AB0080FF82C0909A39DFD301C20177FC43
:1006000082C0BC01CD011F82F982FA82FB82FC828A
:10061000FD82FE826115710581059105A1F08E01B3
:10062000095F1F4FA501940180D0605DF8016293BE
:100630008F01B901CA01611571058105910519F094
:10064000EC15FD0579F7C6016BDFC301B201A9D135
:100650002BED3FE049EC50E432D29B01AC0160E06D
:1006600070E080E89FE304D19B01AC0128D229E32C
:100670003BE94EE858E3FCD027EE34E841E155E58C
:100680001ED25ED1CB01770FAA0BBB0BB7FD43C0C7
:10069000BC01CD011E82F982FA82FB82FC82FD82BE
:1006A0006115710581059105A1F08E010A5F1F4F4B
:1006B000A50194013AD0605DF80162938F01B90100
:1006C000CA01611571058105910519F0CE16DF0685
:1006D00079F764E070E081E090E005DFC60120DF9B
:1006E00080B38295869587701B82F9828823D9F022
:1006F000805D8A83C60114DF71CF9098B7DED30185
:10070000C20177FE7ECF88279927DC0184199509DD
:10071000A609B70976CFB095A095909581959F4F82
:10072000AF4FBF4FB5CFFA82E5CF052E97FB16F43A
:1007300000940FD057FD05D014D007FC02D046F42A
:1007400008C050954095309521953F4F4F4F5F4FD2
:10075000089590958095709561957F4F8F4F9F4F2D
:100760000895A1E21A2EAA1BBB1BFD010DC0AA1FF2
:10077000BB1FEE1FFF1FA217B307E407F50720F00A
:10078000A21BB30BE40BF50B661F771F881F991F85
:100790001A9469F760957095809590959B01AC01CE
:1007A000BD01CF0108955058BB27AA270ED04DC1D7
:1007B0003ED130F043D120F031F49F3F11F41EF4CC
:1007C00033C10EF4E095E7FB29C1E92F4FD180F347
:1007D000BA17620773078407950718F071F49EF53E
:1007E00067C10EF4E0950B2EBA2FA02D0B01B901B5
:1007F00090010C01CA01A0011124FF27591B99F097
:10080000593F50F4503E68F11A16F040A22F232FA2
:10081000342F4427585FF3CF469537952795A795F2
:10082000F0405395C9F77EF41F16BA0B620B730B99
:10083000840BBAF09150A1F0FF0FBB1F661F771F0A
:10084000881FC2F70EC0BA0F621F731F841F48F4BF
:10085000879577956795B795F7959E3F08F0B3CF45
:100860009395880F08F09927EE0F9795879508952F
:100870000CD0EBC0E3D040F0DAD030F021F45F3F91
:1008800019F0CCC0511115C1CFC0F0D098F3992305
:10089000C9F35523B1F3951B550BBB27AA27621744
:1008A0007307840738F09F5F5F4F220F331F441F89
:1008B000AA1FA9F333D00E2E3AF0E0E830D09150C1
:1008C0005040E695001CCAF729D0FE2F27D0660FAE
:1008D000771F881FBB1F261737074807AB07B0E8ED
:1008E00009F0BB0B802DBF01FF2793585F4F2AF003
:1008F0009E3F510568F092C0DCC05F3FECF3983E2C
:10090000DCF3869577956795B795F7959F5FC9F75F
:10091000880F911D9695879597F90895E1E0660FE8
:10092000771F881FBB1F621773078407BA0720F061
:10093000621B730B840BBA0BEE1F88F7E0950895CA
:1009400004D06894B111B5C0089598D088F09F572D
:1009500090F0B92F9927B751A0F0D1F0660F771F0B
:10096000881F991F1AF0BA95C9F712C0B13081F0EB
:100970009FD0B1E008959CC0672F782F8827B85F7B
:1009800039F0B93FCCF3869577956795B395D9F74C
:100990003EF490958095709561957F4F8F4F9F4F56
:1009A0000895E89409C097FB3EF490958095709562
:1009B00061957F4F8F4F9F4F9923A9F0F92F96E9AB
:1009C000BB279395F695879577956795B795F11120
:1009D000F8CFFAF4BB0F11F460FF1BC06F5F7F4FBD
:1009E0008F4F9F4F16C0882311F096E911C07723CF
:1009F00021F09EE8872F762F05C0662371F096E8D8
:100A0000862F70E060E02AF09A95660F771F881FA6
:100A1000DAF7880F9695879597F9089597F99F6764
:100A200080E870E060E008959FEF80EC0895002476
:100A30000A941616170618060906089500240A9443
:100A400012161306140605060895092E0394000CC9
:100A500011F4882352F0BB0F40F4BF2B11F460FF58
:100A600004C06F5F7F4F8F4F9F4F089557FD905881
:100A7000440F551F59F05F3F71F04795880F97FB62
:100A8000991F61F09F3F79F087950895121613061C
:100A90001406551FF2CF4695F1DF08C0161617064B
:100AA0001806991FF1CF8695710561050894089580
:100AB000E894BB2766277727CB0197F908950BD0D9
:100AC000C4CFB5DF28F0BADF18F0952309F0A6CF20
:100AD000ABCF1124EECFCADFA0F3959FD1F3950FD2
:100AE00050E0551F629FF001729FBB27F00DB11DB2
:100AF000639FAA27F00DB11DAA1F649F6627B00D42
:100B0000A11D661F829F2227B00DA11D621F739F2A
:100B1000B00DA11D621F839FA00D611D221F749F38
:100B20003327A00D611D231F849F600D211D822F7F
:100B3000762F6A2F11249F5750408AF0E1F08823C6
:100B40004AF0EE0FFF1FBB1F661F771F881F9150D3
:100B50005040A9F79E3F510570F060CFAACF5F3F8C
:100B6000ECF3983EDCF3869577956795B795F79506
:100B7000E7959F5FC1F7FE2B880F911D969587958E
:080B800097F90895F894FFCFE6
:100B880001084C432042444B202D2D204D6F737497
:100B98006C7920416E616C6F6720456C6563747277
:100BA8006F6E6963732028632920323032332057EF
:0E0BB800696C6C69616D20436F6F6B650000A6
:00000001FF
