:1000000012C02CC02BC02AC029C028C027C026C0BF
:100010005BC0BEC023C022C021C020C01FC01EC004
:100020001DC01CC01BC011241FBECFE5D4E0DEBF25
:10003000CDBF10E0A0E6B0E0EAE9FEE002C0059026
:100040000D92A23BB107D9F720E0A2EBB0E001C0CE
:100050001D92AF3BB207E1F7DDD31DC7D1CF13BE71
:1000600089B7816089BF12BE08951FBC1EBC89B7C5
:10007000846089BF1DBC1CBC08951092BA00109208
:10008000B9001092B5001092B6001092B70010920D
:10009000B80012BE80EB9CE39DBD8CBD8EB5836025
:1000A0008EBD83B7866083BF8091B4008823E1F35F
:1000B0001092B4006091B5007091B6008091B700C5
:1000C0009091B800CBD508951F920F920FB60F9262
:1000D0001124CF92DF92EF92FF922F933F934F9391
:1000E0005F936F937F938F939F93AF93BF93CF93C0
:1000F000EF93FF9383B7887F83BF8FB5887F8FBDD2
:10010000C2B76091B9007091BA00CB01A0E0B0E035
:100110006627782F892F9A2FCDD520E030E040EA4E
:1001200050E456D66B017C016C2F70E080E090E0CB
:10013000C3D59B01AC01C701B601C4D46093B5001F
:100140007093B6008093B7009093B8008091BD0083
:100150009091BE0001969093BE008093BD0081E017
:100160008093B400FF91EF91CF91BF91AF919F9198
:100170008F917F916F915F914F913F912F91FF9060
:10018000EF90DF90CF900F900FBE0F901F901895BB
:100190001F920F920FB60F9211248F939F9380910D
:1001A000B9009091BA0001969093BA008093B9007B
:1001B0009F918F910F900FBE0F901F9018950895EB
:1001C000CF92DF92EF92FF920F931F93CF93DF9323
:1001D0008A016B017C01F7FC36C0C701B6012150D2
:1001E0003109D801A20FB31F1C921216130604F591
:1001F000ED01F80120E22193AE17BF07E1F7CD280A
:10020000CE28CF28A9F02AE0C22ED12CE12CF12C47
:1002100003C00C171D0761F0A701960136D4605D7D
:100220006A93B901CA01611571058105910589F7C4
:1002300080E090E0DF91CF911F910F91FF90EF90C0
:10024000DF90CF900895F094E094D094C094C11CB6
:10025000D11CE11CF11CC1CF2BED3FE049EC50E477
:10026000B7D59B01AC0160E070E080E89FE38ED4DD
:100270009B01AC01ADD529E33BE94EE858E386D4B8
:1002800008952BED3FE049EC50E4A2D59B01AC0171
:1002900060E070E080E89FE379D49B01AC0198D5E1
:1002A0002FEA3BEA42E350E371D40895AF92BF9244
:1002B000CF92DF92EF92FF920F931F93CF93DF9332
:1002C0008C01EB015A012BED3FE049EC50E460E07A
:1002D00070E0CB017DD593982FEF33E244EF2150AE
:1002E00030404040E1F700C00000939A9B01AC0110
:1002F0006FD59B01AC0160E070E080E89FE346D4DD
:100300006B017C0160E070E0CB019B01AC0160D52A
:100310009B01AC0160E070E080E89FE337D4A70167
:100320009601CFD3F50120813181428153812ED4B2
:100330009B01AC01F8016083718382839383C701C1
:10034000B60124D4688379838A839B8381E090E01B
:10035000DF91CF911F910F91FF90EF90DF90CF90A1
:10036000BF90AF90089581B38F7181BB82B3806ECF
:1003700082BB089580B382958695877090E008953A
:100380002F923F924F925F926F927F928F929F92A5
:10039000AF92BF92CF92DF92EF92FF920F931F9393
:1003A000CF93DF93CDB7DEB72C970FB6F894DEBFAF
:1003B0000FBECDBF7A01490197FF03C0012B09F0A1
:1003C00056C000E010E09E012F5F3F4F69012AE018
:1003D000422E512C612C712C1601280C391C04C0A2
:1003E00089010B301105CCF45601A00EB11EA301FA
:1003F00092014BD3605DF5016083B901CA01980198
:100400002F5F3F4F2815390559F72EE2F101208360
:100410000E5F1F4F0B3011053CF3892819F03FEF99
:10042000E31AF30A1E141F044CF4EC0CFD1CF70134
:1004300082917F016BD1CE14DF04C9F72C960FB6E1
:10044000F894DEBF0FBECDBFDF91CF911F910F910A
:10045000FF90EF90DF90CF90BF90AF909F908F90E4
:100460007F906F905F904F903F902F900895909560
:100470008095709561957F4F8F4F9F4FA2CFCF9200
:10048000DF92EF92FF920F931F93CF93DF9327EEAC
:1004900034E841E155E59CD420E030E040E05FE302
:1004A00011D3DCD3C0E0D0E0603127E272078105D0
:1004B0009105A0F12AE0C22ED12CE12CF12CA7014C
:1004C0009601C1D2B22FA32FF42FE52F622F732FE5
:1004D000842F952F2196603127E2720781059105BF
:1004E00070F7C330D105D1F0C630D105B9F0C230B4
:1004F000D10579F1C530D10561F1C830D10549F197
:10050000C130D10531F0C430D10519F0C730D10563
:1005100061F400E010E023E030E01FC000E010E0F4
:1005200021E030E044E050E02BDF2097F9F0D7FDE8
:100530000DC024975CF486E690E0DF91CF911F9187
:100540000F91FF90EF90DF90CF904AC18AE690E044
:10055000F4CF00E010E022E030E044E050E06B2F08
:100560007A2F8F2F9E2F0CDF209709F782E690E0DD
:10057000E4CFCF92DF92EF92FF920F931F93CF932E
:10058000DF9328E23BE64EE65EE422D420E030E052
:1005900040E05FE397D262D3603127E272078105C2
:1005A0009105E0F1C0E0D0E02AE0C22ED12CE12C90
:1005B000F12CA701960147D2B22FA32FF42FE52FDC
:1005C000622F732F842F952F2196603127E27207B7
:1005D0008105910570F7C330D10501F1CCF4C1302C
:1005E000D10521F1229759F400E010E021E030E03C
:1005F00044E050E06B2F7A2F8F2F9E2FC1DEDF91CA
:10060000CF911F910F91FF90EF90DF90CF900895C1
:10061000C430D10559F0259791F7E6CF00E010E0FE
:1006200023E030E044E050E0ABDEE9CF00E010E052
:1006300022E030E0DDCF98B3907F8F70982B98BB8D
:100640008AE18A95F1F700C0C59A8AE18A95F1F7A7
:1006500000C0C5988AE18A95F1F700C00895CF934C
:10066000C82FC49882958F70E6DF8C2F8F70E3DFE0
:100670008AE68A95F1F700C0CF91089580936100D2
:1006800060936000BC9AA09ABD9A87B38F6087BBC5
:10069000C498A898C5988FE59AEE0197F1F700C025
:1006A000000083E0C8DF9AE69A95F1F700C083E086
:1006B000C2DF8AE68A95F1F700C082E0BCDF9AE6E5
:1006C0009A95F1F700C088E2CADF85ED8A95F1F7C7
:1006D000000086E0C4DF95ED9A95F1F700008CE00C
:1006E000BEDF85ED8A95F1F7000081E0B8DF8FE38A
:1006F0009FE10197F1F700C0000082E0B0DF8FE3D7
:100700009FE10197F1F700C000000895CF93C82F33
:10071000C49A82958F708FDF8C2F8F708CDF8AE662
:100720008A95F1F700C0CF91089581E098DF8FE3BB
:100730009FE10197F1F700C00000089582E08FDF8C
:100740008FE39FE10197F1F700C0000008958460F6
:1007500086DF85ED8A95F1F70000089588607FDFD8
:1007600085ED8A95F1F700000895806178DF85EDC9
:100770008A95F1F700000895806271DF85ED8A9512
:10078000F1F7000008958F73805C69DF85ED8A952D
:10079000F1F700000895806862DF85ED8A95F1F732
:1007A000000008952091610030E08217930734F42F
:1007B0002091600030E06217730714F080E0089524
:1007C00028E2629F800D1124806849DF85ED8A95BB
:1007D000F1F7000081E0089580E0089580E0089539
:1007E0000F931F93CF93DF93EC018881882379F0D7
:1007F000219600E010E00F5F1F4F88DF8991811183
:10080000FACFC801DF91CF911F910F91089500E0B9
:1008100010E0F7CFCF93DF93CDB7DEB72A970FB6AF
:10082000F894DEBF0FBECDBF889A939A8B9881B3A0
:100830008F7381BB82B3806C82BB81B38F7181BBAC
:1008400082B3806E82BB13BE89B7816089BF12BE3E
:100850001FBC1EBC89B7846089BF1DBC1CBC62E084
:1008600080E10CDF62DF8EE690E0BADF61E070E0ED
:1008700080E090E097DF8CE890E0B2DF2AEA36EE85
:1008800046E981E02150304040408040D9F70000E7
:1008900061E070E080E090E085DF8DE990E0A0DF2E
:1008A0002BED3FE049EC50E460E070E0CB0190D2EA
:1008B0009398EFEFF3E224EFE150F0402040E1F7AE
:1008C00000C00000939A9B01AC0182D29B01AC0155
:1008D00060E070E080E89FE359D14B015C0160E08B
:1008E00070E0CB019B01AC0173D29B01AC0160E0D5
:1008F00070E080E89FE34AD1A5019401E2D020E0B6
:1009000030E0A90143D19B01AC01C501B4013ED146
:100910004B015C0161E070E080E090E043DFC501E5
:10092000B401ADDD3FEF4BE782E9315040408040FC
:10093000E1F700C00000F9DE90987894FE0131964E
:100940006F0180E2F82E9AE0892E912CA12CB12C17
:100950008091BD009091BE0090DB2B013C01809105
:10096000BD009091BE0080FF5EC0909ADEDED30194
:10097000C20177FC5EC0BC01CD011F82F982FA8200
:10098000FB82FC82FD82FE82611571058105910565
:10099000A1F08E01095F1F4FA501940176D0605D23
:1009A000F80162938F01B901CA01611571058105D2
:1009B000910519F0CE16DF0679F7C60111DF80EB3D
:1009C00090E00EDFC301B20175D12BED3FE049ECA1
:1009D00050E4FED19B01AC0160E070E080E89FE351
:1009E000D5D02B013C0161E070E080E090E0DADEE0
:1009F0008FEA90E0F5DEA3019201C301B201E8D1D4
:100A000029E33BE94EE858E3C1D039DD80B3829554
:100A1000869587701B82F982882399F0805D8A838E
:100A2000C601DEDE95CF909880DED301C20177FE4D
:100A3000A2CF88279927DC0184199509A609B7094F
:100A40009ACFFA82EDCFA1E21A2EAA1BBB1BFD01A1
:100A50000DC0AA1FBB1FEE1FFF1FA217B307E4079D
:100A6000F50720F0A21BB30BE40BF50B661F771FF5
:100A7000881F991F1A9469F76095709580959095D5
:100A80009B01AC01BD01CF010895052E97FB16F423
:100A900000940FD057FD05D0D6DF07FC02D046F4F6
:100AA00008C050954095309521953F4F4F4F5F4F6F
:100AB000089590958095709561957F4F8F4F9F4FCA
:100AC00008955058BB27AA270ED048C139D130F01D
:100AD0003ED120F031F49F3F11F41EF42EC10EF4EC
:100AE000E095E7FB24C1E92F4AD180F3BA176207EA
:100AF00073078407950718F071F49EF562C10EF430
:100B0000E0950B2EBA2FA02D0B01B90190010C011D
:100B1000CA01A0011124FF27591B99F0593F50F435
:100B2000503E68F11A16F040A22F232F342F44278D
:100B3000585FF3CF469537952795A795F040539585
:100B4000C9F77EF41F16BA0B620B730B840BBAF055
:100B50009150A1F0FF0FBB1F661F771F881FC2F7C0
:100B60000EC0BA0F621F731F841F48F487957795D4
:100B70006795B795F7959E3F08F0B3CF9395880F8B
:100B800008F09927EE0F9795879508950CD0E6C049
:100B9000DED040F0D5D030F021F45F3F19F0C7C06F
:100BA000511110C1CAC0EBD098F39923C9F3552352
:100BB000B1F3951B550BBB27AA2762177307840750
:100BC00038F09F5F5F4F220F331F441FAA1FA9F306
:100BD00033D00E2E3AF0E0E830D091505040E695F8
:100BE000001CCAF729D0FE2F27D0660F771F881F59
:100BF000BB1F261737074807AB07B0E809F0BB0B48
:100C0000802DBF01FF2793585F4F2AF09E3F51056B
:100C100068F08DC0D7C05F3FECF3983EDCF386955B
:100C200077956795B795F7959F5FC9F7880F911DE1
:100C30009695879597F90895E1E0660F771F881FCD
:100C4000BB1F621773078407BA0720F0621B730B80
:100C5000840BBA0BEE1F88F7E095089598D088F0C2
:100C60009F5790F0B92F9927B751A0F0D1F0660F98
:100C7000771F881F991F1AF0BA95C9F712C0B130B3
:100C800081F09FD0B1E008959CC0672F782F88270E
:100C9000B85F39F0B93FCCF3869577956795B395F2
:100CA000D9F73EF490958095709561957F4F8F4F61
:100CB0009F4F0895E89409C097FB3EF49095809566
:100CC000709561957F4F8F4F9F4F9923A9F0F92F12
:100CD00096E9BB279395F695879577956795B79590
:100CE000F111F8CFFAF4BB0F11F460FF1BC06F5F76
:100CF0007F4F8F4F9F4F16C0882311F096E911C088
:100D0000772321F09EE8872F762F05C0662371F0A8
:100D100096E8862F70E060E02AF09A95660F771FBC
:100D2000881FDAF7880F9695879597F9089597F9B0
:100D30009F6780E870E060E008959FEF80EC089581
:100D400000240A94161617061806090608950024AA
:100D50000A9412161306140605060895092E039424
:100D6000000C11F4882352F0BB0F40F4BF2B11F498
:100D700060FF04C06F5F7F4F8F4F9F4F089557FDF7
:100D80009058440F551F59F05F3F71F04795880FF9
:100D900097FB991F61F09F3F79F087950895121690
:100DA00013061406551FF2CF4695F1DF08C016163C
:100DB00017061806991FF1CF8695710561050894ED
:100DC0000895E894BB2766277727CB0197F9089504
:100DD0000BD0C4CFB5DF28F0BADF18F0952309F0A7
:100DE000A6CFABCF1124EECFCADFA0F3959FD1F3EE
:100DF000950F50E0551F629FF001729FBB27F00DC9
:100E0000B11D639FAA27F00DB11DAA1F649F66271D
:100E1000B00DA11D661F829F2227B00DA11D621F6C
:100E2000739FB00DA11D621F839FA00D611D221F26
:100E3000749F3327A00D611D231F849F600D211D0A
:100E4000822F762F6A2F11249F5750408AF0E1F0AD
:100E500088234AF0EE0FFF1FBB1F661F771F881FF6
:100E600091505040A9F79E3F510570F060CFAACF36
:100E70005F3FECF3983EDCF3869577956795B795E1
:100E8000F795E7959F5FC1F7FE2B880F911D96950B
:0A0E9000879597F90895F894FFCFB5
:100E9A00010820704600206E4600207546004C432B
:100EAA002042444B202863292032303233205769AC
:100EBA006C6C69616D20436F6F6B65005761697473
:100ECA002D2D7761726D696E6720757000576169A3
:100EDA00742D2D63616C6962726174696E67004377
:020EEA003A00CC
:00000001FF
