:1000000012C021C020C01FC01EC01DC01CC01BC00C
:1000100041C080C018C017C016C015C014C013C09E
:1000200012C011C010C011241FBECFE5D4E0DEBF46
:10003000CDBF20E0A0E6B0E001C01D92AC36B20713
:10004000E1F7B7D18AC4DCCF13BE89B7816089BF1D
:1000500012BE08951FBC1EBC89B7846089BF1DBC39
:100060001CBC089510926700109266001092620006
:1000700010926300109264001092650012BE80EB33
:100080009CE39DBD8CBD8EB583608EBD83B78660BD
:1000900083BF08951F920F920FB60F9211242F93D2
:1000A0008F939F93AF93BF9383B7887F83BF8FB5A1
:1000B000887F8FBD22B78091660090916700A0E095
:1000C000B0E0BA2FA92F982F8827820F911DA11D6C
:1000D000B11D8093620090936300A0936400B0937D
:1000E000650080916A0090916B00019690936B007F
:1000F00080936A0081E090E09093610080936000BB
:10010000BF91AF919F918F912F910F900FBE0F9044
:100110001F9018951F920F920FB60F9211248F9374
:100120009F9380916600909167000196909367007D
:10013000809366009F918F910F900FBE0F901F903C
:100140001895CF92DF92EF92FF920F931F93CF9368
:10015000DF938A016B017C01F7FC36C0C701B60151
:1001600021503109D801A20FB31F1C921216130699
:1001700004F5ED01F80120E22193AE17BF07E1F786
:10018000CD28CE28CF28A9F02AE0C22ED12CE12CF0
:10019000F12C03C00C171D0761F0A701960115D2C1
:1001A000605D6A93B901CA01611571058105910508
:1001B00089F780E090E0DF91CF911F910F91FF9040
:1001C000EF90DF90CF900895F094E094D094C09495
:1001D000C11CD11CE11CF11CC1CFCED220E030E00B
:1001E00040EA50E457D32BED3FE049EC50E452D3C2
:1001F0009B01AC0160E070E080E89FE324D29B01AA
:10020000AC0148D329E33BE94EE858E31CD20895FA
:1002100098B3907F8F70982B98BB8AE18A95F1F7FD
:1002200000C0C59A8AE18A95F1F700C0C5988AE1B5
:100230008A95F1F700C00895CF93C82FC49882958E
:100240008F70E6DF8C2F8F70E3DF8AE68A95F1F7F7
:1002500000C0CF910895BC9AA09ABD9A87B38F60D1
:1002600087BBC498A898C5988FE59AEE0197F1F7D7
:1002700000C0000083E0CCDF9AE69A95F1F700C059
:1002800083E0C6DF8AE68A95F1F700C082E0C0DF2E
:100290009AE69A95F1F700C088E2CEDF85ED8A955F
:1002A000F1F7000086E0C8DF95ED9A95F1F70000C0
:1002B0008CE0C2DF85ED8A95F1F7000081E0BCDFBC
:1002C0008FE39FE10197F1F700C0000082E0B4DF07
:1002D0008FE39FE10197F1F700C000000895CF93ED
:1002E000C82FC49A82958F7093DF8C2F8F7090DF08
:1002F0008AE68A95F1F700C0CF91089581E09CDFEE
:100300008FE39FE10197F1F700C00000089582E0BC
:1003100093DF8FE39FE10197F1F700C0000008959C
:1003200084608ADF85ED8A95F1F700000895886082
:1003300083DF85ED8A95F1F70000089580617CDF09
:1003400085ED8A95F1F700000895806275DF85EDEF
:100350008A95F1F7000008958F73805C6DDF85ED5D
:100360008A95F1F700000895806866DF85ED8A952B
:10037000F1F70000089580E0089580E008950F935C
:100380001F93CF93DF93EC018881882379F0219626
:1003900000E010E00F5F1F4FA2DF89918111FACFBB
:1003A000C801DF91CF911F910F91089500E010E0F7
:1003B000F7CFCF93DF93CDB7DEB72A970FB6F89478
:1003C000DEBF0FBECDBF889A81B38F7381BB82B36E
:1003D000806C82BB13BE89B7816089BF12BE1FBC0F
:1003E0001EBC89B7846089BF1DBC1CBC62E080E173
:1003F00032DF84DF88E473DF89E671DF2FEF83ED7E
:1004000090E3215080409040E1F700C000009098B8
:100410007894FE0131966F0180EBA82E8CE3B82E04
:1004200090E2F92E2AE0422E512C612C712C80E0B2
:1004300056DF1092670010926600109262001092D0
:100440006300109264001092650012BEBDBCACBC8B
:100450008EB583608EBD83B7866083BF80916A004E
:1004600090916B008091600090916100892BD1F395
:10047000109261001092600080916A0090916B0070
:1004800080FF8FC0909A3ADF809162009091630064
:10049000A0916400B0916500B7FD8DC0BC01CD0195
:1004A0001F82F982FA82FB82FC82FD82FE82611544
:1004B000710581059105A1F08E01095F1F4FA30110
:1004C000920183D0605DF80162938F01B901CA0186
:1004D000611571058105910519F0EC15FD0579F798
:1004E000C6014DDF609162007091630080916400ED
:1004F0009091650041D120E030E040EA50E4CAD15B
:100500002BED3FE049EC50E4C5D19B01AC0160E02C
:1005100070E080E89FE397D09B01AC01BBD129E359
:100520003BE94EE858E38FD027EE34E841E155E54A
:10053000B1D1F1D0CB01770FAA0BBB0BB7FD33C004
:10054000BC01CD011E82F982FA82FB82FC82FD820F
:100550006115710581059105A1F08E010A5F1F4F9C
:10056000A301920132D0605DF80162938F01B9015D
:10057000CA01611571058105910519F0CE16DF06D6
:1005800079F7C601FCDE80B38295869586958370E7
:100590001B82F9828823B9F0805D8A83C601EFDE71
:1005A00046CF909870CFB095A095909581959F4F2C
:1005B000AF4FBF4FC5CFB095A095909581959F4FF8
:1005C000AF4FBF4F6BCFFA82E9CF052E97FB16F4E2
:1005D00000940FD057FD05D014D007FC02D046F48C
:1005E00008C050954095309521953F4F4F4F5F4F34
:1005F000089590958095709561957F4F8F4F9F4F8F
:100600000895A1E21A2EAA1BBB1BFD010DC0AA1F53
:10061000BB1FEE1FFF1FA217B307E407F50720F06B
:10062000A21BB30BE40BF50B661F771F881F991FE6
:100630001A9469F760957095809590959B01AC012F
:10064000BD01CF0108950CD0EBC0E3D040F0DAD06B
:1006500030F021F45F3F19F0CCC0511115C1CFC06B
:10066000F0D098F39923C9F35523B1F3951B550B9B
:10067000BB27AA2762177307840738F09F5F5F4F75
:10068000220F331F441FAA1FA9F333D00E2E3AF0B6
:10069000E0E830D091505040E695001CCAF729D0D0
:1006A000FE2F27D0660F771F881FBB1F261737071F
:1006B0004807AB07B0E809F0BB0B802DBF01FF274F
:1006C00093585F4F2AF09E3F510568F092C0DCC0FE
:1006D0005F3FECF3983EDCF3869577956795B79589
:1006E000F7959F5FC9F7880F911D9695879597F9A4
:1006F0000895E1E0660F771F881FBB1F621773071D
:100700008407BA0720F0621B730B840BBA0BEE1F31
:1007100088F7E095089504D06894B111B5C00895A4
:1007200098D088F09F5790F0B92F9927B751A0F033
:10073000D1F0660F771F881F991F1AF0BA95C9F775
:1007400012C0B13081F09FD0B1E008959CC0672FF6
:10075000782F8827B85F39F0B93FCCF38695779525
:100760006795B395D9F73EF490958095709561950E
:100770007F4F8F4F9F4F0895E89409C097FB3EF439
:1007800090958095709561957F4F8F4F9F4F9923DE
:10079000A9F0F92F96E9BB279395F695879577955C
:1007A0006795B795F111F8CFFAF4BB0F11F460FF1C
:1007B0001BC06F5F7F4F8F4F9F4F16C0882311F074
:1007C00096E911C0772321F09EE8872F762F05C088
:1007D000662371F096E8862F70E060E02AF09A9523
:1007E000660F771F881FDAF7880F9695879597F918
:1007F000089597F99F6780E870E060E008959FEFA3
:1008000080EC089500240A941616170618060906A7
:10081000089500240A941216130614060506089576
:10082000092E0394000C11F4882352F0BB0F40F4FE
:10083000BF2B11F460FF04C06F5F7F4F8F4F9F4F3E
:10084000089557FD9058440F551F59F05F3F71F0C0
:100850004795880F97FB991F61F09F3F79F0879527
:100860000895121613061406551FF2CF4695F1DFB0
:1008700008C0161617061806991FF1CF8695710540
:10088000610508940895E894BB2766277727CB0174
:1008900097F908950BD0C4CFB5DF28F0BADF18F070
:1008A000952309F0A6CFABCF1124EECFCADFA0F37A
:1008B000959FD1F3950F50E0551F629FF001729FF5
:1008C000BB27F00DB11D639FAA27F00DB11DAA1F14
:1008D000649F6627B00DA11D661F829F2227B00D61
:1008E000A11D621F739FB00DA11D621F839FA00DEC
:1008F000611D221F749F3327A00D611D231F849F3C
:10090000600D211D822F762F6A2F11249F57504092
:100910008AF0E1F088234AF0EE0FFF1FBB1F661F2D
:10092000771F881F91505040A9F79E3F510570F0E6
:1009300060CFAACF5F3FECF3983EDCF386957795C6
:100940006795B795F795E7959F5FC1F7FE2B880FE1
:0E095000911D9695879597F90895F894FFCF1D
:00000001FF
