:1000000012C02CC02BC02AC029C028C027C026C0BF
:1000100061C0C4C023C022C021C020C01FC01EC0F8
:100020001DC01CC01BC011241FBECFE5D4E0DEBF25
:10003000CDBF11E0A0E6B0E0E6EBF6E102C005902E
:100040000D92AC34B107D9F721E0ACE4B1E001C0C6
:100050001D92A536B207E1F726D52BCBD1CF13BE23
:1000600089B7816089BF12BE08951FBC1EBC89B7C5
:10007000846089BF1DBC1CBC08951092540110926D
:10008000530110924F0110925001109251011092A1
:10009000520112BE80EB9CE39DBD8CBD8EB583608A
:1000A0008EBD83B7866083BF80914E018823E1F3C4
:1000B00010924E018EB5887F8EBD83B7887F83BF37
:1000C00060914F01709150018091510190915201C6
:1000D000AFD908951F920F920FB60F921124CF92AD
:1000E000DF92EF92FF922F933F934F935F936F9323
:1000F0007F938F939F93AF93BF93CF93EF93FF9390
:1001000083B7887F83BF8FB5887F8FBDC2B760916B
:10011000530170915401CB01A0E0B0E06627782F25
:10012000892F9A2FB1D920E030E040EA50E45EDA1E
:100130006B017C016C2F70E080E090E0A7D99B01FF
:10014000AC01C701B601A4D860934F017093500170
:1001500080935101909352018091630190916401C9
:100160000196909364018093630181E080934E0136
:10017000FF91EF91CF91BF91AF919F918F917F911F
:100180006F915F914F913F912F91FF90EF90DF9092
:10019000CF900F900FBE0F901F9018951F920F9247
:1001A0000FB60F9211248F939F93809153019091DA
:1001B0005401019690935401809353019F918F9124
:1001C0000F900FBE0F901F901895CF92DF92EF9275
:1001D000FF920F931F93CF93DF938A016B017C01F2
:1001E000F7FC36C0C701B60121503109D801A20F72
:1001F000B31F1C921216130604F5ED01F80120E25C
:100200002193AE17BF07E1F7CD28CE28CF28A9F05C
:100210002AE0C22ED12CE12CF12C03C00C171D07B3
:1002200061F0A701960117D8605D6A93B901CA0110
:10023000611571058105910589F780E090E0DF91F6
:10024000CF911F910F91FF90EF90DF90CF90089585
:10025000F094E094D094C094C11CD11CE11CF11C1A
:10026000C1CF2BED3FE049EC50E4C0D99B01AC017C
:1002700060E070E080E89FE373D89B01AC01B6D9E1
:1002800020916400309165004091660050916700B4
:1002900067D808952BED3FE049EC50E4A7D99B01C6
:1002A000AC0160E070E080E89FE35AD89B01AC01AC
:1002B0009DD9209160003091610040916200509181
:1002C00063004ED8089581B38F7181BB82B3806E75
:1002D00082BB089545E050E087E020B32295269543
:1002E000277030E020953095277033278223EFE385
:1002F000FFE13197F1F700C000004150510969F763
:1003000090E008952F923F924F925F926F927F926A
:100310008F929F92AF92BF92CF92DF92EF92FF9215
:100320000F931F93CF93DF93CDB7DEB72C970FB604
:10033000F894DEBF0FBECDBF7A01490197FF03C01D
:10034000012B09F056C000E010E09E012F5F3F4FE7
:1003500069012AE0422E512C612C712C1601280CC7
:10036000391C04C089010B301105CCF45601A00ED4
:10037000B11EA30192016FD7605DF5016083B901E1
:10038000CA0198012F5F3F4F2815390559F72EE212
:10039000F10120830E5F1F4F0B3011053CF38928BC
:1003A00019F03FEFE31AF30A1E141F044CF4EC0C8F
:1003B000FD1CF70182917F01F2D2CE14DF04C9F750
:1003C0002C960FB6F894DEBF0FBECDBFDF91CF9154
:1003D0001F910F91FF90EF90DF90CF90BF90AF9063
:1003E0009F908F907F906F905F904F903F902F9055
:1003F000089590958095709561957F4F8F4F9F4F91
:10040000A2CFCF92DF92EF92FF920F931F93CF93E1
:10041000DF9327EE34E841E155E5E8D820E030E00D
:1004200040E05FE335D704D8C0E0D0E0603127E298
:10043000720781059105A0F12AE0C22ED12CE12C92
:10044000F12CA7019601E5D6B22FA32FF42FE52FAB
:10045000622F732F842F952F2196603127E2720728
:100460008105910570F7C330D105D1F0C630D105B3
:10047000B9F0C230D10579F1C530D10561F1C8308C
:10048000D10549F1C130D10531F0C430D10519F0A1
:10049000C730D10561F400E010E023E030E01FC078
:1004A00000E010E021E030E044E050E02BDF209756
:1004B000F9F0D7FD0DC024975CF48EE690E0DF9153
:1004C000CF911F910F91FF90EF90DF90CF90D1C20D
:1004D00082E790E0F4CF00E010E022E030E044E07A
:1004E00050E06B2F7A2F8F2F9E2F0CDF209709F76C
:1004F0008AE690E0E4CFCF92DF92EF92FF920F93E3
:100500001F93CF93DF9328E23BE64EE65EE46ED87E
:1005100020E030E040E05FE3BBD68AD7C0E0D0E027
:10052000603127E272078105910508F44DC02AE089
:10053000C22ED12CE12CF12CA70196016AD6B22F44
:10054000A32FF42FE52F622F732F842F952F219641
:10055000603127E272078105910570F7C330D1053C
:1005600099F1CCF4C130D105D1F1C230D105C9F037
:10057000C630D10524F5C330D10574F5D7FD34C09C
:1005800086E790E0DF91CF911F910F91FF90EF9060
:10059000DF90CF906EC2C430D10509F1C530D105CE
:1005A00039F700E010E021E030E044E050E06B2F4C
:1005B0007A2F8F2F9E2FA6DEC630D105E4F2269724
:1005C00099F48EE790E0DECF00E010E023E030E029
:1005D00044E050E097DECCCF8AE790E0D3CF00E054
:1005E00010E022E030E0E1CFDF91CF911F910F9139
:1005F000FF90EF90DF90CF9008952F923F924F920F
:100600005F926F927F928F929F92AF92BF92CF92A2
:10061000DF92EF92FF920F931F93CF93DF93CDB7AB
:10062000DEB760970FB6F894DEBF0FBECDBF988BD4
:100630008F871B016A01C2D120DD4B015C01DC0107
:10064000CB01B7FCF3C0BC01CD011F8220E229839E
:100650002A832B832C832D832E83611571058105BD
:10066000910509F4F3C08E01095F1F4FFE01319619
:100670007F013AE0432E512C612C712CA301920191
:10068000EAD5605DF80162938F01B901CA01611575
:1006900071058105910519F0EE15FF0579F78ED1E9
:1006A00060E070E080E090E0C6D1C701E2D181E86F
:1006B00090E0DFD1C501B401E9D62BED3FE049EC74
:1006C00050E494D79B01AC0191D76B877C878D87D1
:1006D0009E8793983FEF81EE94E0315080409040A8
:1006E000E1F700C00000C9DC4B015C01DC01CB017B
:1006F0000A96A11DB11DB7FDA1C0BC01CD011F828D
:1007000020E229832A832B832C832D832E8361155A
:10071000710581059105C9F08E01095F1F4F2AE01F
:10072000422E512C612C712CA301920194D5605D55
:10073000F80162938F01B901CA0161157105810544
:10074000910519F0EE16FF0679F761E070E080E0A0
:1007500090E071D1C7018DD1939AC501B40196D6AD
:100760002BED3FE049EC50E441D74B015C012B8578
:100770003C854D855E8560E070E080E89FE3F0D5C4
:100780002B013C01A5019401C501B4012FD79B01A8
:10079000AC0160E070E080E89FE3E2D5A301920144
:1007A00076D5F6012081318142815381D9D56B0103
:1007B0007C019B01AC01C301B201D2D54B015C01AC
:1007C000EF85F889C082D182E282F382F1016083F1
:1007D00071838283938361E070E080E090E02BD1AD
:1007E000C501B4010EDE61E070E088E090E023D145
:1007F000C701B60180DE81E090E060960FB6F89404
:10080000DEBF0FBECDBFDF91CF911F910F91FF9043
:10081000EF90DF90CF90BF90AF909F908F907F90A0
:100820006F905F904F903F902F9008958827992761
:10083000DC0188199909AA09BB0905CFB095A095D3
:10084000909581959F4FAF4FBF4F57CF9E012F5F20
:100850003F4F790124CFCF93DF93EC0160E070E04C
:1008600080E090E0E8D0C230D10549F158F0C430C2
:10087000D10589F0F8F0259799F488ED90E0DF91A3
:10088000CF91F7C0209789F0219751F484E990E047
:10089000DF91CF91EEC087EC90E0DF91CF91E9C07E
:1008A00089EE90E0DF91CF91E4C083E890E0DF91A2
:1008B000CF91DFC086EB90E0DF91CF91DAC085EA7F
:1008C00090E0DF91CF91D5C098B3907F8F70982B37
:1008D00098BB8AE18A95F1F700C0C59A8AE18A95AA
:1008E000F1F700C0C5988AE18A95F1F700C0089534
:1008F000CF93C82FC49882958F70E6DF8C2F8F70AE
:10090000E3DF8AE68A95F1F700C0CF9108958093DE
:10091000690060936800BC9AA09ABD9A87B38F6003
:1009200087BBC498A898C5988FE59AEE0197F1F710
:1009300000C0000083E0C8DF9AE69A95F1F700C096
:1009400083E0C2DF8AE68A95F1F700C082E0BCDF6F
:100950009AE69A95F1F700C088E2CADF85ED8A959C
:10096000F1F7000086E0C4DF95ED9A95F1F70000FD
:100970008CE0BEDF85ED8A95F1F7000081E0B8DFFD
:100980008FE39FE10197F1F700C0000082E0B0DF44
:100990008FE39FE10197F1F700C000000895CF9326
:1009A000C82FC49A82958F708FDF8C2F8F708CDF49
:1009B0008AE68A95F1F700C0CF91089581E098DF2B
:1009C0008FE39FE10197F1F700C00000089582E0F6
:1009D0008FDF8FE39FE10197F1F700C000000895DA
:1009E000846086DF85ED8A95F1F7000008958860C0
:1009F0007FDF85ED8A95F1F700000895806178DF4B
:100A000085ED8A95F1F700000895806271DF85ED2C
:100A10008A95F1F7000008958F73805C69DF85ED9A
:100A20008A95F1F700000895806862DF85ED8A9568
:100A3000F1F7000008952091690030E082179307D4
:100A400034F42091680030E06217730714F080E0FE
:100A5000089528E2629F800D1124806849DF85EDAA
:100A60008A95F1F7000081E0089580E0089580E024
:100A700008950F931F93CF93DF93EC018881882310
:100A800079F0219600E010E00F5F1F4F88DF899119
:100A90008111FACFC801DF91CF911F910F91089575
:100AA00000E010E0F7CFCF93DF93CDB7DEB72C9700
:100AB0000FB6F894DEBF0FBECDBF939A8B9A81B369
:100AC0008F7381BB82B3806C82BB81B38F7181BB1A
:100AD00082B3806E82BB13BE89B7816089BF12BEAC
:100AE0001FBC1EBC89B7846089BF1DBC1CBC62E0F2
:100AF00080E10DDF63DF8AEF90E0BBDF61E070E053
:100B000080E090E098DF88E191E0B3DF2FEF83EDA4
:100B100090E3215080409040E1F700C000007894BD
:100B200061E070E080E090E086DF89E291E0A1DFA3
:100B30008FE590E7A9E8B0E389839A83AB83BC8310
:100B4000AE014F5F5F4FBE016B5F7F4FCE010996D5
:100B500054DD89859A85AB85BC858093640090932C
:100B60006500A0936600B09367008D819E81AF8180
:100B7000B8858093600090936100A0936200B09369
:100B8000630061E070E080E090E055DF6D817E8180
:100B90008F81988536DC61E070E088E090E04BDF83
:100BA00069857A858B859C85A6DC2FEF83ED90E3A4
:100BB000215080409040E1F700C00000FFDE60E07F
:100BC00070E080E090E037DF80914C0190914D0122
:100BD00042DE25E030E047E0F42E80B38295869532
:100BE000877090E08095909587709927F8228FE321
:100BF0009FE10197F1F700C000002150310969F72A
:100C000091E0F91609F42EC161E070E088E090E00F
:100C100012DF8DEA90E02DDF61E070E088E090E087
:100C20000ADF8F2D90E0A0E0B0E000E010E020E0CF
:100C300030E043E050E0BC01CD0164DB80914C0129
:100C400090914D018230910508F46FC0059708F02E
:100C5000C0CF92E0F912BDCF10DA4B015C0125E064
:100C600030E087E0F82E80B382958695877090E01B
:100C70008095909587709927F8228FE39FE10197DF
:100C8000F1F700C000002150310969F760E070E021
:100C900088E090E0D0DE00E010E020E030E046E0C8
:100CA00050E0C501B4012EDBC501B401EDD32BED3D
:100CB0003FE049EC50E49AD49B01AC0160E070E065
:100CC00080E89FE34DD39B01AC0190D4209160005C
:100CD00030916100409162005091630041D34B011B
:100CE0005C0192E0F91609F46AC223E0F21271CFB6
:100CF000209164003091650040916600509167003A
:100D0000C501B401C4D220915D0130915E014091D2
:100D10005F0150916001BBD2609355017093560101
:100D2000809357019093580154CF93E0F91609F43A
:100D300061C19F150CF0EEC084E0F81609F4D7C12C
:100D400095E0F91246CF99D94B015C0125E030E0DE
:100D500097E0F92E80B382958695877090E0809514
:100D6000909587709927F8228FE39FE10197F1F71B
:100D700000C000002150310969F761E070E088E0AF
:100D800090E059DE6F2D70E080E090E000E010E030
:100D900020E030E043E050E0B5DA81E491E069DE44
:100DA0008F2D90E00497029708F013CF81149104DF
:100DB000A104B10409F40DCF60E070E088E090E098
:100DC0003ADE20E030E046E050E0C501B4019ADAB6
:100DD000C501B40159D32BED3FE049EC50E406D4F2
:100DE0009B01AC0160E070E080E89FE3B9D29B0119
:100DF000AC01FCD320916400309165004091660005
:100E000050916700ADD26B017C0161E070E080E041
:100E100090E011DE84E491E02CDE209160003091BE
:100E200061004091620050916300C701B6012FD26A
:100E30006093590170935A0180935B0190935C0118
:100E400061E070E08AE090E0F6DD8BE391E011DE96
:100E50009FEF25EA8EE0915020408040E1F700C0EE
:100E60000000B7CE80914C0190914D0101968630E3
:100E7000910509F4BAC090934D0180934C0160E054
:100E800070E080E090E0D7DD80914C0190914D01C1
:100E9000E2DC25E030E047E080B3829586958770FC
:100EA00090E0809590958770992748238FE39FE184
:100EB0000197F1F700C000002150310969F7413076
:100EC00041F380914C0190914D010297039708F0F6
:100ED0009BCE10925501109256011092570110921C
:100EE000580161E070E088E090E0A5DD8DEA90E0D7
:100EF000C0DD61E070E088E090E09DDD00E010E0A2
:100F000020E030E043E050E061E070E080E090E01D
:100F1000F9D95FCE22E0F2125CCEAFD84B015C0172
:100F200025E030E047E080B382958695877090E0B9
:100F3000809590958770992748238FE39FE10197CB
:100F4000F1F700C000002150310969F7423009F083
:100F500040CE81149104A104B10409F43ACE60E0BA
:100F600070E088E090E067DD00E010E020E030E035
:100F700046E050E0C501B401C5D9C501B40184D231
:100F80002BED3FE049EC50E431D39B01AC0160E034
:100F900070E080E89FE3E4D19B01AC0127D320916E
:100FA0006000309161004091620050916300D8D19F
:100FB0006B017C0161E070E080E090E03CDD20911D
:100FC0006400309165004091660050916700C70150
:100FD000B6015DD120915D0130915E0140915F01CC
:100FE0005091600154D187DAF4CD10924D011092E6
:100FF0004C0145CF42D84B015C0125E030E047E091
:1010000080B382958695877090E0809590958770E3
:10101000992748238FE39FE10197F1F700C0000073
:101020002150310969F7842F90E00297029708F068
:10103000D0CD81149104A104B10409F4CACD60E0BB
:1010400070E088E090E0F7DC00E010E020E030E0C5
:1010500046E050E0C501B40155D9C501B40114D230
:101060002BED3FE049EC50E4C1D29B01AC0160E0C4
:1010700070E080E89FE374D19B01AC01B7D220916E
:10108000600030916100409162005091630068D12E
:101090006B017C0161E070E080E090E0CCDC2091AD
:1010A0006400309165004091660050916700C7016F
:1010B000B601EDD020DA20916400309165004091B6
:1010C000660050916700C701B601E1D060935D01F1
:1010D00070935E0180935F019093600161E070E026
:1010E00088E090E0A8DC8BE391E0C3DC72CDC5D74B
:1010F0004B015C0125E030E047E080B382958695A6
:10110000877090E0809590958770992748238FE3AA
:101110009FE10197F1F700C000002150310969F704
:10112000443009F056CD81149104A104B10409F4AE
:1011300050CD60E070E088E090E07DDC00E010E001
:1011400020E030E046E050E0C501B401DBD8C50145
:10115000B4019AD12BED3FE049EC50E447D29B011A
:10116000AC0160E070E080E89FE3FAD09B01AC0145
:101170003DD220916400309165004091660050910D
:101180006700EED06B017C0161E070E080E090E0F0
:1011900052DC2091600030916100409162005091DA
:1011A0006300C701B60173D02091590130915A01F3
:1011B00040915B0150915C016AD023D90ACDC09067
:1011C0005501D0905601E0905701F090580120E071
:1011D00030E0A901C701B601BFD0882309F4F9CCDA
:1011E0002091640030916500409166005091670045
:1011F000C501B4014CD020915D0130915E01409158
:101200005F015091600143D0A701960140D073D98E
:10121000E0CCA1E21A2EAA1BBB1BFD010DC0AA1F28
:10122000BB1FEE1FFF1FA217B307E407F50720F04F
:10123000A21BB30BE40BF50B661F771F881F991FCA
:101240001A9469F760957095809590959B01AC0113
:10125000BD01CF010895052E97FB16F400940FD021
:1012600057FD05D0D6DF07FC02D046F408C05095E4
:101270004095309521953F4F4F4F5F4F0895909582
:101280008095709561957F4F8F4F9F4F089550586F
:10129000BB27AA270ED070C161D130F066D120F0F3
:1012A00031F49F3F11F41EF456C10EF4E095E7FBB4
:1012B0004CC1E92F72D180F3BA1762077307840714
:1012C000950718F071F49EF58AC10EF4E0950B2E87
:1012D000BA2FA02D0B01B90190010C01CA01A00188
:1012E0001124FF27591B99F0593F50F4503E68F1E3
:1012F0001A16F040A22F232F342F4427585FF3CF24
:10130000469537952795A795F0405395C9F77EF4F4
:101310001F16BA0B620B730B840BBAF09150A1F03D
:10132000FF0FBB1F661F771F881FC2F70EC0BA0FC3
:10133000621F731F841F48F4879577956795B7954B
:10134000F7959E3F08F0B3CF9395880F08F0992743
:10135000EE0F979587950895D4D008F481E008950D
:101360000CD00AC102D140F0F9D030F021F45F3F37
:1013700019F0EBC0511134C1EEC00FD198F399238D
:10138000C9F35523B1F3951B550BBB27AA27621749
:101390007307840738F09F5F5F4F220F331F441F8E
:1013A000AA1FA9F333D00E2E3AF0E0E830D09150C6
:1013B0005040E695001CCAF729D0FE2F27D0660FB3
:1013C000771F881FBB1F261737074807AB07B0E8F2
:1013D00009F0BB0B802DBF01FF2793585F4F2AF008
:1013E0009E3F510568F0B1C0FBC05F3FECF3983EF3
:1013F000DCF3869577956795B795F7959F5FC9F765
:10140000880F911D9695879597F90895E1E0660FED
:10141000771F881FBB1F621773078407BA0720F066
:10142000621B730B840BBA0BEE1F88F7E0950895CF
:10143000BCD088F09F5790F0B92F9927B751A0F0F2
:10144000D1F0660F771F881F991F1AF0BA95C9F758
:1014500012C0B13081F0C3D0B1E00895C0C0672F91
:10146000782F8827B85F39F0B93FCCF38695779508
:101470006795B395D9F73EF49095809570956195F1
:101480007F4F8F4F9F4F0895E89409C097FB3EF41C
:1014900090958095709561957F4F8F4F9F4F9923C1
:1014A000A9F0F92F96E9BB279395F695879577953F
:1014B0006795B795F111F8CFFAF4BB0F11F460FFFF
:1014C0001BC06F5F7F4F8F4F9F4F16C0882311F057
:1014D00096E911C0772321F09EE8872F762F05C06B
:1014E000662371F096E8862F70E060E02AF09A9506
:1014F000660F771F881FDAF7880F9695879597F9FB
:101500000895990F0008550FAA0BE0E8FEEF161694
:101510001706E807F907C0F012161306E407F507E7
:1015200098F0621B730B840B950B39F40A2661F05B
:10153000232B242B252B21F408950A2609F4A140FE
:10154000A6958FEF811D811D089597F99F6780E80B
:1015500070E060E008959FEF80EC089500240A9405
:101560001616170618060906089500240A9412167E
:101570001306140605060895092E0394000C11F4B1
:10158000882352F0BB0F40F4BF2B11F460FF04C05E
:101590006F5F7F4F8F4F9F4F089557FD9058440FB7
:1015A000551F59F05F3F71F04795880F97FB991FC2
:1015B00061F09F3F79F0879508951216130614067F
:1015C000551FF2CF4695F1DF08C01616170618060C
:1015D000991FF1CF86957105610508940895E894E7
:1015E000BB2766277727CB0197F908950BD0C4CF87
:1015F000B5DF28F0BADF18F0952309F0A6CFABCFFE
:101600001124EECFCADFA0F3959FD1F3950F50E0E0
:10161000551F629FF001729FBB27F00DB11D639FA4
:10162000AA27F00DB11DAA1F649F6627B00DA11D4A
:10163000661F829F2227B00DA11D621F739FB00DF0
:10164000A11D621F839FA00D611D221F749F332760
:10165000A00D611D231F849F600D211D822F762FF9
:101660006A2F11249F5750408AF0E1F088234AF0F6
:10167000EE0FFF1FBB1F661F771F881F9150504042
:10168000A9F79E3F510570F060CFAACF5F3FECF302
:10169000983EDCF3869577956795B795F795E7952E
:1016A0009F5FC1F7FE2B880F911D9695879597F93F
:0616B0000895F894FFCF3D
:1016B600BFEA3A30399B8E38010820704600206E0A
:1016C60046002075460020754800206D48002048D9
:1016D600003A004D656173757265204E414E4F208C
:1016E600202020004D6561737572652075202020CD
:1016F60020202020004D61746368206E2020202069
:101706002020202020004D61746368207520202051
:10171600202020202020004D6174636820506572CF
:1017260063656E742020200043616C696272617487
:101736006520202020202020004D4F444520455282
:10174600524F52212020202020004C432042444B5F
:101756002028632920323032332057696C6C696146
:101766006D20436F6F6B6500576169742D2D77612E
:10177600726D696E6720757000576169742D2D63EF
:10178600616C6962726174696E6700537472617923
:0C17960000435A007A65726F2063000067
:00000001FF
